{
  "_format": "hh-sol-artifact-1",
  "contractName": "TransactionStorage",
  "sourceName": "contracts/TransactionStorage.sol",
  "abi": [
    {
      "anonymous": false,
      "inputs": [
        {
          "indexed": false,
          "internalType": "uint256",
          "name": "id",
          "type": "uint256"
        }
      ],
      "name": "FraudDetected",
      "type": "event"
    },
    {
      "anonymous": false,
      "inputs": [
        {
          "indexed": false,
          "internalType": "uint256",
          "name": "id",
          "type": "uint256"
        },
        {
          "indexed": false,
          "internalType": "address",
          "name": "sender",
          "type": "address"
        },
        {
          "indexed": false,
          "internalType": "address",
          "name": "receiver",
          "type": "address"
        },
        {
          "indexed": false,
          "internalType": "uint256",
          "name": "amount",
          "type": "uint256"
        }
      ],
      "name": "TransactionAdded",
      "type": "event"
    },
    {
      "inputs": [
        {
          "internalType": "uint256",
          "name": "_id",
          "type": "uint256"
        },
        {
          "internalType": "address",
          "name": "_receiver",
          "type": "address"
        },
        {
          "internalType": "uint256",
          "name": "_amount",
          "type": "uint256"
        }
      ],
      "name": "addTransaction",
      "outputs": [],
      "stateMutability": "nonpayable",
      "type": "function"
    },
    {
      "inputs": [
        {
          "internalType": "uint256",
          "name": "_id",
          "type": "uint256"
        }
      ],
      "name": "flagTransaction",
      "outputs": [],
      "stateMutability": "nonpayable",
      "type": "function"
    },
    {
      "inputs": [
        {
          "internalType": "uint256",
          "name": "",
          "type": "uint256"
        }
      ],
      "name": "flaggedTransactions",
      "outputs": [
        {
          "internalType": "bool",
          "name": "",
          "type": "bool"
        }
      ],
      "stateMutability": "view",
      "type": "function"
    },
    {
      "inputs": [
        {
          "internalType": "uint256",
          "name": "",
          "type": "uint256"
        }
      ],
      "name": "transactions",
      "outputs": [
        {
          "internalType": "uint256",
          "name": "id",
          "type": "uint256"
        },
        {
          "internalType": "address",
          "name": "sender",
          "type": "address"
        },
        {
          "internalType": "address",
          "name": "receiver",
          "type": "address"
        },
        {
          "internalType": "uint256",
          "name": "amount",
          "type": "uint256"
        },
        {
          "internalType": "bool",
          "name": "isFraudulent",
          "type": "bool"
        }
      ],
      "stateMutability": "view",
      "type": "function"
    }
  ],
  "bytecode": "0x6080604052348015600f57600080fd5b506105e28061001f6000396000f3fe608060405234801561001057600080fd5b506004361061004c5760003560e01c8063068d89a8146100515780639ace38c21461006d578063c23cc95c146100a1578063e5348c44146100d1575b600080fd5b61006b600480360381019061006691906103c7565b6100ed565b005b610087600480360381019061008291906103c7565b610152565b60405161009895949392919061045f565b60405180910390f35b6100bb60048036038101906100b691906103c7565b6101e5565b6040516100c891906104b2565b60405180910390f35b6100eb60048036038101906100e691906104f9565b610205565b005b600180600083815260200190815260200160002060006101000a81548160ff0219169083151502179055507f30c9bbf8353932f230e3ac3090a24d1bc366e5b51b48d3f945fcafaa6f6bbbed81604051610147919061054c565b60405180910390a150565b6000818154811061016257600080fd5b90600052602060002090600502016000915090508060000154908060010160009054906101000a900473ffffffffffffffffffffffffffffffffffffffff16908060020160009054906101000a900473ffffffffffffffffffffffffffffffffffffffff16908060030154908060040160009054906101000a900460ff16905085565b60016020528060005260406000206000915054906101000a900460ff1681565b60006040518060a001604052808581526020013373ffffffffffffffffffffffffffffffffffffffff1681526020018473ffffffffffffffffffffffffffffffffffffffff1681526020018381526020016000151581525090806001815401808255809150506001900390600052602060002090600502016000909190919091506000820151816000015560208201518160010160006101000a81548173ffffffffffffffffffffffffffffffffffffffff021916908373ffffffffffffffffffffffffffffffffffffffff16021790555060408201518160020160006101000a81548173ffffffffffffffffffffffffffffffffffffffff021916908373ffffffffffffffffffffffffffffffffffffffff1602179055506060820151816003015560808201518160040160006101000a81548160ff02191690831515021790555050507fb330da09c4b96c255a5d375fd724d70eb540bce961242934f4d2fb4db6ecbf2f8333848460405161037f9493929190610567565b60405180910390a1505050565b600080fd5b6000819050919050565b6103a481610391565b81146103af57600080fd5b50565b6000813590506103c18161039b565b92915050565b6000602082840312156103dd576103dc61038c565b5b60006103eb848285016103b2565b91505092915050565b6103fd81610391565b82525050565b600073ffffffffffffffffffffffffffffffffffffffff82169050919050565b600061042e82610403565b9050919050565b61043e81610423565b82525050565b60008115159050919050565b61045981610444565b82525050565b600060a08201905061047460008301886103f4565b6104816020830187610435565b61048e6040830186610435565b61049b60608301856103f4565b6104a86080830184610450565b9695505050505050565b60006020820190506104c76000830184610450565b92915050565b6104d681610423565b81146104e157600080fd5b50565b6000813590506104f3816104cd565b92915050565b6000806000606084860312156105125761051161038c565b5b6000610520868287016103b2565b9350506020610531868287016104e4565b9250506040610542868287016103b2565b9150509250925092565b600060208201905061056160008301846103f4565b92915050565b600060808201905061057c60008301876103f4565b6105896020830186610435565b6105966040830185610435565b6105a360608301846103f4565b9594505050505056fea2646970667358221220dac5f4785b6e5b04a6afd0694424de4b7aa77da0c299a4f0ac9ab1ec1b3db81b64736f6c634300081c0033",
  "linkReferences": {},
  "deployedLinkReferences": {}
}