{
  "_format": "hh-sol-artifact-1",
  "contractName": "TransactionStorage",
  "sourceName": "contracts/TransactionStorage.sol",
  "abi": [
    {
      "anonymous": false,
      "inputs": [
        {
          "indexed": false,
          "internalType": "uint256",
          "name": "id",
          "type": "uint256"
        },
        {
          "indexed": false,
          "internalType": "string",
          "name": "details",
          "type": "string"
        },
        {
          "indexed": false,
          "internalType": "bool",
          "name": "isFraudulent",
          "type": "bool"
        }
      ],
      "name": "TransactionAdded",
      "type": "event"
    },
    {
      "anonymous": false,
      "inputs": [
        {
          "indexed": false,
          "internalType": "uint256",
          "name": "id",
          "type": "uint256"
        }
      ],
      "name": "TransactionFlagged",
      "type": "event"
    },
    {
      "inputs": [
        {
          "internalType": "uint256",
          "name": "_id",
          "type": "uint256"
        }
      ],
      "name": "flagTransaction",
      "outputs": [],
      "stateMutability": "nonpayable",
      "type": "function"
    },
    {
      "inputs": [
        {
          "internalType": "uint256",
          "name": "_id",
          "type": "uint256"
        }
      ],
      "name": "getTransaction",
      "outputs": [
        {
          "components": [
            {
              "internalType": "uint256",
              "name": "id",
              "type": "uint256"
            },
            {
              "internalType": "string",
              "name": "details",
              "type": "string"
            },
            {
              "internalType": "bool",
              "name": "isFraudulent",
              "type": "bool"
            }
          ],
          "internalType": "struct TransactionStorage.Transaction",
          "name": "",
          "type": "tuple"
        }
      ],
      "stateMutability": "view",
      "type": "function"
    },
    {
      "inputs": [
        {
          "internalType": "uint256",
          "name": "_id",
          "type": "uint256"
        },
        {
          "internalType": "string",
          "name": "_details",
          "type": "string"
        },
        {
          "internalType": "bool",
          "name": "_isFraudulent",
          "type": "bool"
        }
      ],
      "name": "storeTransaction",
      "outputs": [],
      "stateMutability": "nonpayable",
      "type": "function"
    },
    {
      "inputs": [],
      "name": "transactionCount",
      "outputs": [
        {
          "internalType": "uint256",
          "name": "",
          "type": "uint256"
        }
      ],
      "stateMutability": "view",
      "type": "function"
    },
    {
      "inputs": [
        {
          "internalType": "uint256",
          "name": "",
          "type": "uint256"
        }
      ],
      "name": "transactions",
      "outputs": [
        {
          "internalType": "uint256",
          "name": "id",
          "type": "uint256"
        },
        {
          "internalType": "string",
          "name": "details",
          "type": "string"
        },
        {
          "internalType": "bool",
          "name": "isFraudulent",
          "type": "bool"
        }
      ],
      "stateMutability": "view",
      "type": "function"
    }
  ],
  "bytecode": "0x6080604052348015600f57600080fd5b50610c948061001f6000396000f3fe608060405234801561001057600080fd5b50600436106100575760003560e01c8063068d89a81461005c57806333ea3dc8146100785780639ace38c2146100a8578063a4bb984e146100da578063b77bf600146100f6575b600080fd5b610076600480360381019061007191906104b3565b610114565b005b610092600480360381019061008d91906104b3565b6101d4565b60405161009f91906105ea565b60405180910390f35b6100c260048036038101906100bd91906104b3565b6102b7565b6040516100d193929190610674565b60405180910390f35b6100f460048036038101906100ef9190610813565b610376565b005b6100fe610440565b60405161010b9190610882565b60405180910390f35b6000806000838152602001908152602001600020600001540361016c576040517f08c379a0000000000000000000000000000000000000000000000000000000008152600401610163906108e9565b60405180910390fd5b600160008083815260200190815260200160002060020160006101000a81548160ff0219169083151502179055507f4385f27aa814d77b193697d70ae92f518d34bf346f71e8bc7e222f1f7877ee55816040516101c99190610882565b60405180910390a150565b6101dc610446565b6000808381526020019081526020016000206040518060600160405290816000820154815260200160018201805461021390610938565b80601f016020809104026020016040519081016040528092919081815260200182805461023f90610938565b801561028c5780601f106102615761010080835404028352916020019161028c565b820191906000526020600020905b81548152906001019060200180831161026f57829003601f168201915b505050505081526020016002820160009054906101000a900460ff1615151515815250509050919050565b60006020528060005260406000206000915090508060000154908060010180546102e090610938565b80601f016020809104026020016040519081016040528092919081815260200182805461030c90610938565b80156103595780601f1061032e57610100808354040283529160200191610359565b820191906000526020600020905b81548152906001019060200180831161033c57829003601f168201915b5050505050908060020160009054906101000a900460ff16905083565b60405180606001604052808481526020018381526020018215158152506000808581526020019081526020016000206000820151816000015560208201518160010190816103c49190610b15565b5060408201518160020160006101000a81548160ff021916908315150217905550905050600160008154809291906103fb90610c16565b91905055507f1253e629c0d26287b09fbd26518d76b1c1ce689a6df30dc9ddfc1e17b50daf9e83838360405161043393929190610674565b60405180910390a1505050565b60015481565b604051806060016040528060008152602001606081526020016000151581525090565b6000604051905090565b600080fd5b600080fd5b6000819050919050565b6104908161047d565b811461049b57600080fd5b50565b6000813590506104ad81610487565b92915050565b6000602082840312156104c9576104c8610473565b5b60006104d78482850161049e565b91505092915050565b6104e98161047d565b82525050565b600081519050919050565b600082825260208201905092915050565b60005b8381101561052957808201518184015260208101905061050e565b60008484015250505050565b6000601f19601f8301169050919050565b6000610551826104ef565b61055b81856104fa565b935061056b81856020860161050b565b61057481610535565b840191505092915050565b60008115159050919050565b6105948161057f565b82525050565b60006060830160008301516105b260008601826104e0565b50602083015184820360208601526105ca8282610546565b91505060408301516105df604086018261058b565b508091505092915050565b60006020820190508181036000830152610604818461059a565b905092915050565b6106158161047d565b82525050565b600082825260208201905092915050565b6000610637826104ef565b610641818561061b565b935061065181856020860161050b565b61065a81610535565b840191505092915050565b61066e8161057f565b82525050565b6000606082019050610689600083018661060c565b818103602083015261069b818561062c565b90506106aa6040830184610665565b949350505050565b600080fd5b600080fd5b7f4e487b7100000000000000000000000000000000000000000000000000000000600052604160045260246000fd5b6106f482610535565b810181811067ffffffffffffffff82111715610713576107126106bc565b5b80604052505050565b6000610726610469565b905061073282826106eb565b919050565b600067ffffffffffffffff821115610752576107516106bc565b5b61075b82610535565b9050602081019050919050565b82818337600083830152505050565b600061078a61078584610737565b61071c565b9050828152602081018484840111156107a6576107a56106b7565b5b6107b1848285610768565b509392505050565b600082601f8301126107ce576107cd6106b2565b5b81356107de848260208601610777565b91505092915050565b6107f08161057f565b81146107fb57600080fd5b50565b60008135905061080d816107e7565b92915050565b60008060006060848603121561082c5761082b610473565b5b600061083a8682870161049e565b935050602084013567ffffffffffffffff81111561085b5761085a610478565b5b610867868287016107b9565b9250506040610878868287016107fe565b9150509250925092565b6000602082019050610897600083018461060c565b92915050565b7f5472616e73616374696f6e20646f6573206e6f742065786973742e0000000000600082015250565b60006108d3601b8361061b565b91506108de8261089d565b602082019050919050565b60006020820190508181036000830152610902816108c6565b9050919050565b7f4e487b7100000000000000000000000000000000000000000000000000000000600052602260045260246000fd5b6000600282049050600182168061095057607f821691505b60208210810361096357610962610909565b5b50919050565b60008190508160005260206000209050919050565b60006020601f8301049050919050565b600082821b905092915050565b6000600883026109cb7fffffffffffffffffffffffffffffffffffffffffffffffffffffffffffffffff8261098e565b6109d5868361098e565b95508019841693508086168417925050509392505050565b6000819050919050565b6000610a12610a0d610a088461047d565b6109ed565b61047d565b9050919050565b6000819050919050565b610a2c836109f7565b610a40610a3882610a19565b84845461099b565b825550505050565b600090565b610a55610a48565b610a60818484610a23565b505050565b5b81811015610a8457610a79600082610a4d565b600181019050610a66565b5050565b601f821115610ac957610a9a81610969565b610aa38461097e565b81016020851015610ab2578190505b610ac6610abe8561097e565b830182610a65565b50505b505050565b600082821c905092915050565b6000610aec60001984600802610ace565b1980831691505092915050565b6000610b058383610adb565b9150826002028217905092915050565b610b1e826104ef565b67ffffffffffffffff811115610b3757610b366106bc565b5b610b418254610938565b610b4c828285610a88565b600060209050601f831160018114610b7f5760008415610b6d578287015190505b610b778582610af9565b865550610bdf565b601f198416610b8d86610969565b60005b82811015610bb557848901518255600182019150602085019450602081019050610b90565b86831015610bd25784890151610bce601f891682610adb565b8355505b6001600288020188555050505b505050505050565b7f4e487b7100000000000000000000000000000000000000000000000000000000600052601160045260246000fd5b6000610c218261047d565b91507fffffffffffffffffffffffffffffffffffffffffffffffffffffffffffffffff8203610c5357610c52610be7565b5b60018201905091905056fea264697066735822122021a36a2610a97d5c0af04fb999824cd1ef0a801a9d2a49aa1887b752ef5ea34a64736f6c634300081c0033",
  "linkReferences": {},
  "deployedLinkReferences": {}
}