{
  "_format": "hh-sol-artifact-1",
  "contractName": "EnhancedConsensus",
  "sourceName": "contracts/EnhancedConsensus.sol",
  "abi": [
    {
      "inputs": [],
      "stateMutability": "nonpayable",
      "type": "constructor"
    },
    {
      "anonymous": false,
      "inputs": [
        {
          "indexed": false,
          "internalType": "uint256",
          "name": "id",
          "type": "uint256"
        }
      ],
      "name": "FraudFlagged",
      "type": "event"
    },
    {
      "anonymous": false,
      "inputs": [
        {
          "indexed": false,
          "internalType": "address",
          "name": "newLeader",
          "type": "address"
        }
      ],
      "name": "LeaderRotated",
      "type": "event"
    },
    {
      "anonymous": false,
      "inputs": [
        {
          "indexed": false,
          "internalType": "uint256",
          "name": "id",
          "type": "uint256"
        },
        {
          "indexed": true,
          "internalType": "address",
          "name": "sender",
          "type": "address"
        },
        {
          "indexed": true,
          "internalType": "address",
          "name": "receiver",
          "type": "address"
        }
      ],
      "name": "TransactionAdded",
      "type": "event"
    },
    {
      "anonymous": false,
      "inputs": [
        {
          "indexed": false,
          "internalType": "uint256",
          "name": "id",
          "type": "uint256"
        },
        {
          "indexed": false,
          "internalType": "address",
          "name": "validator",
          "type": "address"
        }
      ],
      "name": "TransactionApproved",
      "type": "event"
    },
    {
      "anonymous": false,
      "inputs": [
        {
          "indexed": false,
          "internalType": "uint256",
          "name": "id",
          "type": "uint256"
        }
      ],
      "name": "TransactionCommitted",
      "type": "event"
    },
    {
      "inputs": [],
      "name": "MIN_APPROVALS",
      "outputs": [
        {
          "internalType": "uint256",
          "name": "",
          "type": "uint256"
        }
      ],
      "stateMutability": "view",
      "type": "function"
    },
    {
      "inputs": [
        {
          "internalType": "address",
          "name": "_receiver",
          "type": "address"
        },
        {
          "internalType": "uint256",
          "name": "_amount",
          "type": "uint256"
        },
        {
          "internalType": "uint256[]",
          "name": "_parents",
          "type": "uint256[]"
        }
      ],
      "name": "addTransaction",
      "outputs": [
        {
          "internalType": "uint256",
          "name": "",
          "type": "uint256"
        }
      ],
      "stateMutability": "nonpayable",
      "type": "function"
    },
    {
      "inputs": [
        {
          "internalType": "address",
          "name": "_validator",
          "type": "address"
        }
      ],
      "name": "addValidator",
      "outputs": [],
      "stateMutability": "nonpayable",
      "type": "function"
    },
    {
      "inputs": [
        {
          "internalType": "uint256",
          "name": "_id",
          "type": "uint256"
        }
      ],
      "name": "approveTransaction",
      "outputs": [],
      "stateMutability": "nonpayable",
      "type": "function"
    },
    {
      "inputs": [
        {
          "internalType": "address",
          "name": "",
          "type": "address"
        }
      ],
      "name": "energyScore",
      "outputs": [
        {
          "internalType": "uint256",
          "name": "",
          "type": "uint256"
        }
      ],
      "stateMutability": "view",
      "type": "function"
    },
    {
      "inputs": [
        {
          "internalType": "uint256",
          "name": "_id",
          "type": "uint256"
        }
      ],
      "name": "flagFraudulent",
      "outputs": [],
      "stateMutability": "nonpayable",
      "type": "function"
    },
    {
      "inputs": [
        {
          "internalType": "address",
          "name": "",
          "type": "address"
        }
      ],
      "name": "fraudCount",
      "outputs": [
        {
          "internalType": "uint256",
          "name": "",
          "type": "uint256"
        }
      ],
      "stateMutability": "view",
      "type": "function"
    },
    {
      "inputs": [],
      "name": "getAllValidators",
      "outputs": [
        {
          "internalType": "address[]",
          "name": "",
          "type": "address[]"
        }
      ],
      "stateMutability": "view",
      "type": "function"
    },
    {
      "inputs": [],
      "name": "getCurrentLeader",
      "outputs": [
        {
          "internalType": "address",
          "name": "",
          "type": "address"
        }
      ],
      "stateMutability": "view",
      "type": "function"
    },
    {
      "inputs": [
        {
          "internalType": "address",
          "name": "_validator",
          "type": "address"
        }
      ],
      "name": "getReputation",
      "outputs": [
        {
          "internalType": "uint256",
          "name": "",
          "type": "uint256"
        }
      ],
      "stateMutability": "view",
      "type": "function"
    },
    {
      "inputs": [
        {
          "internalType": "uint256",
          "name": "",
          "type": "uint256"
        }
      ],
      "name": "leaderHistory",
      "outputs": [
        {
          "internalType": "address",
          "name": "",
          "type": "address"
        }
      ],
      "stateMutability": "view",
      "type": "function"
    },
    {
      "inputs": [],
      "name": "rotateLeader",
      "outputs": [],
      "stateMutability": "nonpayable",
      "type": "function"
    },
    {
      "inputs": [],
      "name": "transactionCount",
      "outputs": [
        {
          "internalType": "uint256",
          "name": "",
          "type": "uint256"
        }
      ],
      "stateMutability": "view",
      "type": "function"
    },
    {
      "inputs": [
        {
          "internalType": "uint256",
          "name": "",
          "type": "uint256"
        }
      ],
      "name": "transactions",
      "outputs": [
        {
          "internalType": "uint256",
          "name": "id",
          "type": "uint256"
        },
        {
          "internalType": "address",
          "name": "sender",
          "type": "address"
        },
        {
          "internalType": "address",
          "name": "receiver",
          "type": "address"
        },
        {
          "internalType": "uint256",
          "name": "amount",
          "type": "uint256"
        },
        {
          "internalType": "bool",
          "name": "isFraudulent",
          "type": "bool"
        },
        {
          "internalType": "uint256",
          "name": "approvals",
          "type": "uint256"
        },
        {
          "internalType": "bool",
          "name": "committed",
          "type": "bool"
        }
      ],
      "stateMutability": "view",
      "type": "function"
    },
    {
      "inputs": [
        {
          "internalType": "address",
          "name": "_validator",
          "type": "address"
        },
        {
          "internalType": "uint256",
          "name": "_score",
          "type": "uint256"
        }
      ],
      "name": "updateEnergyScore",
      "outputs": [],
      "stateMutability": "nonpayable",
      "type": "function"
    },
    {
      "inputs": [
        {
          "internalType": "uint256",
          "name": "",
          "type": "uint256"
        }
      ],
      "name": "validatorList",
      "outputs": [
        {
          "internalType": "address",
          "name": "",
          "type": "address"
        }
      ],
      "stateMutability": "view",
      "type": "function"
    },
    {
      "inputs": [
        {
          "internalType": "address",
          "name": "",
          "type": "address"
        }
      ],
      "name": "validators",
      "outputs": [
        {
          "internalType": "bool",
          "name": "",
          "type": "bool"
        }
      ],
      "stateMutability": "view",
      "type": "function"
    }
  ],
  "bytecode": "0x6080604052348015600f57600080fd5b5060018060003373ffffffffffffffffffffffffffffffffffffffff1673ffffffffffffffffffffffffffffffffffffffff16815260200190815260200160002060006101000a81548160ff0219169083151502179055506004339080600181540180825580915050600190039060005260206000200160009091909190916101000a81548173ffffffffffffffffffffffffffffffffffffffff021916908373ffffffffffffffffffffffffffffffffffffffff1602179055506118b1806100d96000396000f3fe608060405234801561001057600080fd5b506004361061010b5760003560e01c8063b048e056116100a2578063e868ba7011610071578063e868ba70146102f4578063f1d9b8d314610312578063f3513a371461031c578063f65dc4a71461033a578063fa52c7d8146103585761010b565b8063b048e0561461025a578063b77bf6001461028a578063de143661146102a8578063e10e62ca146102c45761010b565b8063550ef92a116100de578063550ef92a146101a85780638aa16bb2146101c45780639ace38c2146101f45780639c89a0e21461022a5761010b565b8063207285e914610110578063242232d1146101405780632d1360df1461015c5780634d238c8e1461018c575b600080fd5b61012a60048036038101906101259190611294565b610388565b6040516101379190611312565b60405180910390f35b61015a6004803603810190610155919061132d565b61059f565b005b6101766004803603810190610171919061135a565b610778565b6040516101839190611312565b60405180910390f35b6101a660048036038101906101a1919061135a565b610790565b005b6101c260048036038101906101bd919061132d565b6108d9565b005b6101de60048036038101906101d9919061135a565b610a57565b6040516101eb9190611312565b60405180910390f35b61020e6004803603810190610209919061132d565b610a6f565b60405161022197969594939291906113b1565b60405180910390f35b610244600480360381019061023f919061135a565b610b0b565b6040516102519190611312565b60405180910390f35b610274600480360381019061026f919061132d565b610bbc565b6040516102819190611420565b60405180910390f35b610292610bfb565b60405161029f9190611312565b60405180910390f35b6102c260048036038101906102bd919061143b565b610c01565b005b6102de60048036038101906102d9919061132d565b610cd5565b6040516102eb9190611420565b60405180910390f35b6102fc610d14565b6040516103099190611420565b60405180910390f35b61031a610d81565b005b610324610f76565b6040516103319190611539565b60405180910390f35b610342611004565b60405161034f9190611312565b60405180910390f35b610372600480360381019061036d919061135a565b611009565b60405161037f919061155b565b60405180910390f35b6000806005600081548092919061039e906115a5565b9190505590506040518061010001604052808281526020013373ffffffffffffffffffffffffffffffffffffffff1681526020018673ffffffffffffffffffffffffffffffffffffffff16815260200185815260200160001515815260200184815260200160008152602001600015158152506000808381526020019081526020016000206000820151816000015560208201518160010160006101000a81548173ffffffffffffffffffffffffffffffffffffffff021916908373ffffffffffffffffffffffffffffffffffffffff16021790555060408201518160020160006101000a81548173ffffffffffffffffffffffffffffffffffffffff021916908373ffffffffffffffffffffffffffffffffffffffff1602179055506060820151816003015560808201518160040160006101000a81548160ff02191690831515021790555060a0820151816005019080519060200190610501929190611029565b5060c0820151816006015560e08201518160070160006101000a81548160ff0219169083151502179055509050508473ffffffffffffffffffffffffffffffffffffffff163373ffffffffffffffffffffffffffffffffffffffff167fefb00307f9e424f19eff90a58168324d2ebf0db7fe81fb43c4dc9b71d8cd35488360405161058c9190611312565b60405180910390a3809150509392505050565b600160003373ffffffffffffffffffffffffffffffffffffffff1673ffffffffffffffffffffffffffffffffffffffff16815260200190815260200160002060009054906101000a900460ff1661062b576040517f08c379a00000000000000000000000000000000000000000000000000000000081526004016106229061164a565b60405180910390fd5b60008082815260200190815260200160002060070160009054906101000a900460ff161561068e576040517f08c379a0000000000000000000000000000000000000000000000000000000008152600401610685906116b6565b60405180910390fd5b60008082815260200190815260200160002060060160008154809291906106b4906115a5565b91905055507f924813d717e221b5f46dcd8a56da1679e4612584ab3237d55e5faabf6f6a307981336040516106ea9291906116d6565b60405180910390a16002600080838152602001908152602001600020600601541061077557600160008083815260200190815260200160002060070160006101000a81548160ff0219169083151502179055507f4cfa2cce6155019a4925eadd1ec3a998bec2ef69afc6aa592eb50141f881643e8160405161076c9190611312565b60405180910390a15b50565b60026020528060005260406000206000915090505481565b600160003373ffffffffffffffffffffffffffffffffffffffff1673ffffffffffffffffffffffffffffffffffffffff16815260200190815260200160002060009054906101000a900460ff1661081c576040517f08c379a00000000000000000000000000000000000000000000000000000000081526004016108139061164a565b60405180910390fd5b60018060008373ffffffffffffffffffffffffffffffffffffffff1673ffffffffffffffffffffffffffffffffffffffff16815260200190815260200160002060006101000a81548160ff0219169083151502179055506004819080600181540180825580915050600190039060005260206000200160009091909190916101000a81548173ffffffffffffffffffffffffffffffffffffffff021916908373ffffffffffffffffffffffffffffffffffffffff16021790555050565b600160003373ffffffffffffffffffffffffffffffffffffffff1673ffffffffffffffffffffffffffffffffffffffff16815260200190815260200160002060009054906101000a900460ff16610965576040517f08c379a000000000000000000000000000000000000000000000000000000000815260040161095c9061164a565b60405180910390fd5b600160008083815260200190815260200160002060040160006101000a81548160ff0219169083151502179055506003600080600084815260200190815260200160002060010160009054906101000a900473ffffffffffffffffffffffffffffffffffffffff1673ffffffffffffffffffffffffffffffffffffffff1673ffffffffffffffffffffffffffffffffffffffff1681526020019081526020016000206000815480929190610a18906115a5565b91905055507fb29bdcbefd02ce2e529b16d4cba28707bf1ff98342439997e5de88d73be4fe5781604051610a4c9190611312565b60405180910390a150565b60036020528060005260406000206000915090505481565b60006020528060005260406000206000915090508060000154908060010160009054906101000a900473ffffffffffffffffffffffffffffffffffffffff16908060020160009054906101000a900473ffffffffffffffffffffffffffffffffffffffff16908060030154908060040160009054906101000a900460ff16908060060154908060070160009054906101000a900460ff16905087565b600080600360008473ffffffffffffffffffffffffffffffffffffffff1673ffffffffffffffffffffffffffffffffffffffff1681526020019081526020016000205490506000600260008573ffffffffffffffffffffffffffffffffffffffff1673ffffffffffffffffffffffffffffffffffffffff168152602001908152602001600020549050808210610ba657600092505050610bb7565b8181610bb291906116ff565b925050505b919050565b60048181548110610bcc57600080fd5b906000526020600020016000915054906101000a900473ffffffffffffffffffffffffffffffffffffffff1681565b60055481565b600160003373ffffffffffffffffffffffffffffffffffffffff1673ffffffffffffffffffffffffffffffffffffffff16815260200190815260200160002060009054906101000a900460ff16610c8d576040517f08c379a0000000000000000000000000000000000000000000000000000000008152600401610c849061164a565b60405180910390fd5b80600260008473ffffffffffffffffffffffffffffffffffffffff1673ffffffffffffffffffffffffffffffffffffffff168152602001908152602001600020819055505050565b60068181548110610ce557600080fd5b906000526020600020016000915054906101000a900473ffffffffffffffffffffffffffffffffffffffff1681565b60008060068054905003610d2b5760009050610d7e565b60066001600680549050610d3f91906116ff565b81548110610d5057610d4f611733565b5b9060005260206000200160009054906101000a900473ffffffffffffffffffffffffffffffffffffffff1690505b90565b600160003373ffffffffffffffffffffffffffffffffffffffff1673ffffffffffffffffffffffffffffffffffffffff16815260200190815260200160002060009054906101000a900460ff16610e0d576040517f08c379a0000000000000000000000000000000000000000000000000000000008152600401610e049061164a565b60405180910390fd5b600060048054905011610e55576040517f08c379a0000000000000000000000000000000000000000000000000000000008152600401610e4c906117ae565b60405180910390fd5b60006004805490504244604051602001610e709291906117ef565b6040516020818303038152906040528051906020012060001c610e93919061184a565b9050600060048281548110610eab57610eaa611733565b5b9060005260206000200160009054906101000a900473ffffffffffffffffffffffffffffffffffffffff1690506006819080600181540180825580915050600190039060005260206000200160009091909190916101000a81548173ffffffffffffffffffffffffffffffffffffffff021916908373ffffffffffffffffffffffffffffffffffffffff1602179055507f7195d75f566874d1ec88e0dae9b090dd5ef246a3edfaa2b73aecac726cf2513d81604051610f6a9190611420565b60405180910390a15050565b60606004805480602002602001604051908101604052809291908181526020018280548015610ffa57602002820191906000526020600020905b8160009054906101000a900473ffffffffffffffffffffffffffffffffffffffff1673ffffffffffffffffffffffffffffffffffffffff1681526020019060010190808311610fb0575b5050505050905090565b600281565b60016020528060005260406000206000915054906101000a900460ff1681565b828054828255906000526020600020908101928215611065579160200282015b82811115611064578251825591602001919060010190611049565b5b5090506110729190611076565b5090565b5b8082111561108f576000816000905550600101611077565b5090565b6000604051905090565b600080fd5b600080fd5b600073ffffffffffffffffffffffffffffffffffffffff82169050919050565b60006110d2826110a7565b9050919050565b6110e2816110c7565b81146110ed57600080fd5b50565b6000813590506110ff816110d9565b92915050565b6000819050919050565b61111881611105565b811461112357600080fd5b50565b6000813590506111358161110f565b92915050565b600080fd5b6000601f19601f8301169050919050565b7f4e487b7100000000000000000000000000000000000000000000000000000000600052604160045260246000fd5b61118982611140565b810181811067ffffffffffffffff821117156111a8576111a7611151565b5b80604052505050565b60006111bb611093565b90506111c78282611180565b919050565b600067ffffffffffffffff8211156111e7576111e6611151565b5b602082029050602081019050919050565b600080fd5b600061121061120b846111cc565b6111b1565b90508083825260208201905060208402830185811115611233576112326111f8565b5b835b8181101561125c57806112488882611126565b845260208401935050602081019050611235565b5050509392505050565b600082601f83011261127b5761127a61113b565b5b813561128b8482602086016111fd565b91505092915050565b6000806000606084860312156112ad576112ac61109d565b5b60006112bb868287016110f0565b93505060206112cc86828701611126565b925050604084013567ffffffffffffffff8111156112ed576112ec6110a2565b5b6112f986828701611266565b9150509250925092565b61130c81611105565b82525050565b60006020820190506113276000830184611303565b92915050565b6000602082840312156113435761134261109d565b5b600061135184828501611126565b91505092915050565b6000602082840312156113705761136f61109d565b5b600061137e848285016110f0565b91505092915050565b611390816110c7565b82525050565b60008115159050919050565b6113ab81611396565b82525050565b600060e0820190506113c6600083018a611303565b6113d36020830189611387565b6113e06040830188611387565b6113ed6060830187611303565b6113fa60808301866113a2565b61140760a0830185611303565b61141460c08301846113a2565b98975050505050505050565b60006020820190506114356000830184611387565b92915050565b600080604083850312156114525761145161109d565b5b6000611460858286016110f0565b925050602061147185828601611126565b9150509250929050565b600081519050919050565b600082825260208201905092915050565b6000819050602082019050919050565b6114b0816110c7565b82525050565b60006114c283836114a7565b60208301905092915050565b6000602082019050919050565b60006114e68261147b565b6114f08185611486565b93506114fb83611497565b8060005b8381101561152c57815161151388826114b6565b975061151e836114ce565b9250506001810190506114ff565b5085935050505092915050565b6000602082019050818103600083015261155381846114db565b905092915050565b600060208201905061157060008301846113a2565b92915050565b7f4e487b7100000000000000000000000000000000000000000000000000000000600052601160045260246000fd5b60006115b082611105565b91507fffffffffffffffffffffffffffffffffffffffffffffffffffffffffffffffff82036115e2576115e1611576565b5b600182019050919050565b600082825260208201905092915050565b7f4e6f7420612076616c696461746f720000000000000000000000000000000000600082015250565b6000611634600f836115ed565b915061163f826115fe565b602082019050919050565b6000602082019050818103600083015261166381611627565b9050919050565b7f416c726561647920636f6d6d6974746564000000000000000000000000000000600082015250565b60006116a06011836115ed565b91506116ab8261166a565b602082019050919050565b600060208201905081810360008301526116cf81611693565b9050919050565b60006040820190506116eb6000830185611303565b6116f86020830184611387565b9392505050565b600061170a82611105565b915061171583611105565b925082820390508181111561172d5761172c611576565b5b92915050565b7f4e487b7100000000000000000000000000000000000000000000000000000000600052603260045260246000fd5b7f4e6f2076616c696461746f727300000000000000000000000000000000000000600082015250565b6000611798600d836115ed565b91506117a382611762565b602082019050919050565b600060208201905081810360008301526117c78161178b565b9050919050565b6000819050919050565b6117e96117e482611105565b6117ce565b82525050565b60006117fb82856117d8565b60208201915061180b82846117d8565b6020820191508190509392505050565b7f4e487b7100000000000000000000000000000000000000000000000000000000600052601260045260246000fd5b600061185582611105565b915061186083611105565b9250826118705761186f61181b565b5b82820690509291505056fea26469706673582212206a121067e35091255595d5efc5abf56e22453602eca78a3a043e7b5276b05a4e64736f6c634300081c0033",
  "linkReferences": {},
  "deployedLinkReferences": {}
}